:020000040800F2
:1000000000000220151F0008211E0008231E000802
:10001000251E0008271E0008291E000800000000F9
:10002000000000000000000000000000315A00083D
:100030002B1E000800000000C15A00087944000887
:10004000651F0008651F0008651F0008651F000880
:10005000651F0008651F0008651F0008651F000870
:10006000651F0008651F0008651F0008651F000860
:10007000651F0008651F0008651F0008651F000850
:10008000651F0008651F0008651F0008651F000840
:10009000651F0008651F0008651F0008651F000830
:1000A000651F0008651F0008651F0008651F000820
:1000B000651F0008651F0008651F0008651F000810
:1000C000651F0008651F0008651F0008651F000800
:1000D000651F0008651F0008651F00082D1E000829
:1000E000651F0008651F0008651F0008651F0008E0
:1000F000651F0008651F0008391E0008651F0008FD
:10010000651F0008651F0008651F0008651F0008BF
:10011000651F0008651F0008451E0008651F0008D0
:10012000651F0008651F0008651F0008651F00089F
:10013000651F0008651F0008651F0008651F00088F
:10014000651F0008651F0008651F0008651F00087F
:10015000651F0008651F0008651F0008651F00086F
:10016000651F0008651F0008651F0008651F00085F
:10017000651F0008651F0008651F000800000000DB
:08018000651F0008651F00085F
:1001900010B5054C237833B9044B13B10448AFF3C1
:1001A00000800123237010BD180200200000000011
:1001B000748F000808B5034B1BB103490348AFF324
:1001C000008008BD000000001C020020748F0008A1
:1001D00001F0FF01102A2BDB10F0070F08D010F8F8
:1001E000013B013A8B422DD010F0070F42B3F6D1FC
:1001F000F0B441EA012141EA014122F007047FF015
:1002000000070023F0E80256083C85EA010586EA6B
:10021000010685FA47F5A3FA87F586FA47F6A5FAA7
:1002200087F68EB9EED1F0BC01F0FF0102F00702B3
:1002300032B110F8013B013A83EA010313B1F8D15E
:100240000020704701387047002D06BF354603383F
:10025000073815F0010F07D1013015F4807F02BF78
:10026000013015F4C03F0130F0BC0138704700BFC9
:10027000034613F8012B002AFBD1181A01387047E6
:1002800081F0004102E000BF83F0004330B54FEA47
:1002900041044FEA430594EA050F08BF90EA020FB4
:1002A0001FBF54EA000C55EA020C7FEA645C7FEA47
:1002B000655C00F0E2804FEA5454D4EB5555B8BF6A
:1002C0006D420CDD2C4480EA020281EA030382EADB
:1002D000000083EA010180EA020281EA0303362D6D
:1002E00088BF30BD11F0004F4FEA01314FF4801C40
:1002F0004CEA113102D0404261EB410113F0004F52
:100300004FEA03334CEA133302D0524263EB430308
:1003100094EA050F00F0A780A4F10104D5F1200EA6
:100320000DDB02FA0EFC22FA05F2801841F1000101
:1003300003FA0EF2801843FA05F359410EE0A5F1D5
:1003400020050EF1200E012A03FA0EFC28BF4CF006
:10035000020C43FA05F3C01851EBE37101F00045BC
:1003600007D54FF0000EDCF1000C7EEB00006EEBC9
:100370000101B1F5801F1BD3B1F5001F0CD3490853
:100380005FEA30004FEA3C0C04F101044FEA4452AA
:1003900012F5800F80F09A80BCF1004F08BF5FEA31
:1003A000500C50F1000041EB045141EA050130BD11
:1003B0005FEA4C0C404141EB0101013C28BFB1F523
:1003C000801FE9D291F0000F04BF01460020B1FA6E
:1003D00081F308BF2033A3F10B03B3F120020CDA41
:1003E0000C3208DD02F1140CC2F10C0201FA0CF01F
:1003F00021FA02F10CE002F11402D8BFC2F1200C84
:1004000001FA02F120FA0CFCDCBF41EA0C01904039
:10041000E41AA2BF01EB0451294330BD6FEA040482
:100420001F3C1CDA0C340EDC04F11404C4F120026D
:1004300020FA04F001FA02F340EA030021FA04F37F
:1004400045EA030130BDC4F10C04C4F1200220FAD6
:1004500002F001FA04F340EA0300294630BD21FA14
:1004600004F0294630BD94F0000F83F4801306BFDA
:1004700081F480110134013D4EE77FEA645C18BFCE
:100480007FEA655C29D094EA050F08BF90EA020F65
:1004900005D054EA000C04BF1946104630BD91EA5D
:1004A000030F1EBF0021002030BD5FEA545C05D160
:1004B0004000494128BF41F0004130BD14F580049F
:1004C0003CBF01F5801130BD01F0004545F0FE4113
:1004D00041F470014FF0000030BD7FEA645C1ABF48
:1004E000194610467FEA655C1CBF0B46024650EA7F
:1004F000013406BF52EA033591EA030F41F40021AB
:1005000030BD00BF90F0000F04BF0021704730B530
:100510004FF4806404F132044FF000054FF0000105
:1005200050E700BF90F0000F04BF0021704730B5C6
:100530004FF4806404F1320410F0004548BF40429B
:100540004FF000013EE700BF42004FEAE2014FEAF0
:1005500031014FEA02701FBF12F07F4393F07F4FCB
:1005600081F06051704732F07F4208BF704793F0CE
:100570007F4F04BF41F40021704730B54FF46074E1
:1005800001F0004521F000411CE700BF50EA0102E4
:1005900008BF704730B54FF000050AE050EA01028D
:1005A00008BF704730B511F0004502D5404261EBFD
:1005B00041014FF4806404F132045FEA915C3FF43E
:1005C000D8AE4FF003025FEADC0C18BF03325FEADB
:1005D000DC0C18BF033202EBDC02C2F1200300FA8C
:1005E00003FC20FA02F001FA03FE40EA0E0021FAB1
:1005F00002F11444BDE600BF70B54FF0FF0C4CF49F
:10060000E06C1CEA11541DBF1CEA135594EA0C0F50
:1006100095EA0C0F00F0DEF82C4481EA030621EA8B
:100620004C5123EA4C5350EA013518BF52EA0335C6
:1006300041F4801143F4801338D0A0FB02CE4FF078
:100640000005E1FB02E506F00042E0FB03E54FF0A8
:100650000006E1FB03569CF0000F18BF4EF0010EA0
:10066000A4F1FF04B6F5007F64F5407404D25FEA9C
:100670004E0E6D4146EB060642EAC62141EA55514F
:100680004FEAC52040EA5E504FEACE2EB4F1FD0C91
:1006900088BFBCF5E06F1ED8BEF1004F08BF5FEA0F
:1006A000500E50F1000041EB045170BD06F00046C1
:1006B00046EA010140EA020081EA0301B4EB5C046E
:1006C000C2BFD4EB0C0541EA045170BD41F4801166
:1006D0004FF0000E013C00F3AB8014F1360FDEBF8B
:1006E000002001F0004170BDC4F10004203C35DA67
:1006F0000C341BDC04F11404C4F1200500FA05F3EA
:1007000020FA04F001FA05F240EA020001F000428A
:1007100021F0004110EBD37021FA04F642EB060100
:100720005EEA430E08BF20EAD37070BDC4F10C042A
:10073000C4F1200500FA04F320FA05F001FA04F2EE
:1007400040EA020001F0004110EBD37041F10001DA
:100750005EEA430E08BF20EAD37070BDC4F12005E5
:1007600000FA05F24EEA020E20FA04F301FA05F24D
:1007700043EA020321FA04F001F0004121FA04F2F5
:1007800020EA020000EBD3705EEA430E08BF20EAC5
:10079000D37070BD94F0000F0FD101F000464000FF
:1007A00041EB010111F4801F08BF013CF7D041EA81
:1007B000060195F0000F18BF704703F00046520085
:1007C00043EB030313F4801F08BF013DF7D043EA56
:1007D0000603704794EA0C0F0CEA135518BF95EA0C
:1007E0000C0F0CD050EA410618BF52EA4306D1D193
:1007F00081EA030101F000414FF0000070BD50EAB2
:10080000410606BF1046194652EA430619D094EA3B
:100810000C0F02D150EA013613D195EA0C0F05D125
:1008200052EA03361CBF104619460AD181EA030179
:1008300001F0004141F0FE4141F470014FF0000031
:1008400070BD41F0FE4141F4780170BD70B54FF0CC
:10085000FF0C4CF4E06C1CEA11541DBF1CEA13554C
:1008600094EA0C0F95EA0C0F00F0A7F8A4EB05042E
:1008700081EA030E52EA03354FEA013100F0888025
:100880004FEA03334FF0805545EA131343EA1263EE
:100890004FEA022245EA111545EA10654FEA0026A3
:1008A0000EF000419D4208BF964244F1FD0404F55C
:1008B000407402D25B084FEA3202B61A65EB0305B8
:1008C0005B084FEA32024FF480104FF4002CB6EB75
:1008D000020E75EB030E22BFB61A754640EA0C00F5
:1008E0005B084FEA3202B6EB020E75EB030E22BF35
:1008F000B61A754640EA5C005B084FEA3202B6EB76
:10090000020E75EB030E22BFB61A754640EA9C0034
:100910005B084FEA3202B6EB020E75EB030E22BF04
:10092000B61A754640EADC0055EA060E18D04FEAC2
:10093000051545EA16754FEA06164FEAC30343EA62
:1009400052734FEAC2025FEA1C1CC0D111F4801F2F
:100950000BD141EA00014FF000004FF0004CB6E728
:1009600011F4801F04BF01430020B4F1FD0C88BFC7
:10097000BCF5E06F3FF6AFAEB5EB030C04BFB6EBD2
:10098000020C5FEA500C50F1000041EB045170BDC5
:100990000EF0004E4EEA113114EB5C04C2BFD4EBF2
:1009A0000C0541EA045170BD41F480114FF0000E76
:1009B000013C90E645EA060E8DE60CEA135594EAF2
:1009C0000C0F08BF95EA0C0F3FF43BAF94EA0C0FF5
:1009D0000AD150EA01347FF434AF95EA0C0F7FF46A
:1009E00025AF104619462CE795EA0C0F06D152EABE
:1009F00003353FF4FDAE1046194622E750EA4106A2
:100A000018BF52EA43067FF4C5AE50EA41047FF4B2
:100A10000DAF52EA43057FF4EBAE12E74FF0FF3C17
:100A200006E000BF4FF0010C02E000BF4FF0010CE8
:100A30004DF804CD4FEA410C7FEA6C5C4FEA430C61
:100A400018BF7FEA6C5C1BD001B050EA410C0CBFB0
:100A500052EA430C91EA030F02BF90EA020F002012
:100A6000704710F1000F91EA030F58BF994208BF79
:100A700090422CBFD8176FEAE37040F00100704736
:100A80004FEA410C7FEA6C5C02D150EA013C07D18D
:100A90004FEA430C7FEA6C5CD6D152EA033CD3D0D8
:100AA0005DF8040B704700BF8446104662468C46D2
:100AB0001946634600E000BF01B5FFF7B7FF002805
:100AC00048BF10F1000F01BD4DF808EDFFF7F4FF2E
:100AD0000CBF012000205DF808FB00BF4DF808EDB9
:100AE000FFF7EAFF34BF012000205DF808FB00BFDC
:100AF0004DF808EDFFF7E0FF94BF012000205DF8FE
:100B000008FB00BF4DF808EDFFF7CEFF94BF0120B2
:100B100000205DF808FB00BF4DF808EDFFF7C4FFAB
:100B200034BF012000205DF808FB00BF4FEA410CF4
:100B30007FEA6C5C02D150EA013C0AD14FEA430CD7
:100B40007FEA6C5C02D152EA033C02D14FF0000014
:100B500070474FF0010070474FEA410212F5001252
:100B600015D211D56FF47873B3EB625212D94FEAF4
:100B7000C12343F0004343EA505311F0004F23FADE
:100B800002F018BF404270474FF00000704750EA33
:100B9000013005D111F0004008BF6FF000407047F0
:100BA0004FF00000704700BF4A0011D212F500124A
:100BB00011D20DD56FF47873B3EB62520ED44FEAB5
:100BC000C12343F0004343EA505323FA02F0704735
:100BD0004FF00000704750EA013002D14FF0FF3073
:100BE00070474FF00000704753B94AB9002908BF59
:100BF00000281CBF4FF0FF314FF0FF3000F088B9E4
:100C0000ADF1080C6DE904CE00F006F8DDF804E063
:100C1000DDE9022304B070472DE9F047089D8E46B8
:100C200004468846002B4AD18A42174662D9B2FA56
:100C300082F64EB1C6F1200301FA06F820FA03F35A
:100C4000B74043EA0808B4404FEA174E1FFA87FC42
:100C5000B8FBFEF1230C0EFB118843EA084301FBAD
:100C60000CF29A4209D9FB1801F1FF3080F0EA80BA
:100C70009A4240F2E78002393B449A1AA3B2B2FB8F
:100C8000FEF00EFB102243EA024300FB0CFC9C45E5
:100C900009D9FB1800F1FF3280F0D6809C4540F264
:100CA000D3803B44023840EA0140A3EB0C0300210F
:100CB0001DB1F3400022C5E90032BDE8F0878B4248
:100CC00005D90DB1C5E9000100210846F5E7B3FAE1
:100CD00083F1002946D1734502D3824200F2058197
:100CE000841A6EEB030201209046002DE5D0C5E981
:100CF0000048E2E7002A00F09080B2FA82F6002E67
:100D000040F0A4808A1A030C4FEA174E80B2BCB29E
:100D10000121B2FBFEFC0EFB1C2243EA024304FB52
:100D20000CF29A4207D9FB180CF1FF3802D29A4212
:100D300000F2E080C4469B1AB3FBFEF20EFB1233B6
:100D400040EA034302FB04F49C4207D9FB1802F17A
:100D5000FF3002D29C4200F2CA8002461B1B42EACC
:100D60000C40A5E7C1F120068B4022FA06F71F438D
:100D70000EFA01F420FA06F32EFA06FE4FEA17499E
:100D8000234300FA01F81FFA87FCBEFBF9F01C0CA4
:100D900009FB10EE44EA0E4400FB0CFEA64502FAE5
:100DA00001F209D93C1900F1FF3A80F09C80A64578
:100DB00040F2998002383C44A4EB0E041FFA83FEF3
:100DC000B4FBF9F309FB13444EEA044403FB0CFCA7
:100DD000A44508D93C1903F1FF3E80F08280A44568
:100DE0007FD9023B3C4443EA0040A4EB0C04A0FB47
:100DF00002EC64457346E14662D35FD05DB1B8EB67
:100E0000030264EB090404FA06F622FA01F31E4316
:100E1000CC40C5E9006400214FE7B1FBF2FC010CB6
:100E200041EA0E4180B240EA01423B4638463C4628
:100E3000B846BE462026B1FBF7F1A2EB080241EA14
:100E40000C4166E7014618E710462CE7C6F1200280
:100E50002EFA02F3B740B14020FA02F24FEA174EE1
:100E60000A43B3FBFEF8BCB20EFB1833110C41EA87
:100E7000034108FB04F9B04089454FEA104380B2B2
:100E80003ED9791808F1FF3C01D289451FD8A1EB62
:100E90000901B1FBFEF909FB04F80EFB191192B22E
:100EA00042EA0142424529D2BA1809F1FF31C4D2BF
:100EB0004245C2D2A9F102013A44BEE7F0459DD2B3
:100EC000BEEB02036CEB070C0138E14696E7A7EB9B
:100ED00009094944A8F1020CB1FBFEF909FB04F829
:100EE000DBE773467FE7504666E70846FDE63B448E
:100EF000023A33E7ACF1020C3B441CE749469CE75D
:100F0000A1EB0901C446B1FBFEF909FB04F8C4E7F3
:100F1000704700BF10B5054C20464FF4807101F0BA
:100F2000E8F94FF47A7003F025FBF5E70010024072
:100F300008B510480F4C002102F03EFF69262368D7
:100F40004FF4FA605E6303F015FB236848255D6388
:100F50004FF4FA6003F00EFB23682D225A634FF41E
:100F6000FA6003F007FB23684FF4FA605D6303F057
:100F700001FBE4E7000300207FB50D4B01AC03F15A
:100F80001002264618685968254603C5083393425F
:100F90002C46F7D1002305930A210846324605F076
:100FA0005FF804F0C5FF4FF47A7003F0E3FAF3E75B
:100FB000908F00082DE9F04F3E4D3F4C3F4F404E83
:100FC000DFF8048187B03C21284602F067FA3C2113
:100FD000204602F063FA2B68D3F824A02368D3F8E4
:100FE000249000F0E7FF834600F0E4FFA0EB0B0045
:100FF000B0F57A7F3BD92868D4F800C0416ADCF8A4
:1010000024300268D2063CD58A4534DDAAEB0102C1
:10101000DCF80010BA61C90642D599453BDDA9EB61
:101020000303B361036883F01003C3F30013414665
:1010300001A805F00DFE01AA14210A2005F010F800
:101040002368B2691B681F49C3F3001301A805F0A8
:10105000FFFD01AA1E210A2005F002F82B68D3F833
:1010600024A02368D3F8249000F0A4FF8346012035
:1010700003F080FAB8E7C1F57F41FF310AEB0102C6
:10108000C6E78A4502DAA1EB0A02C1E7CAF57F4A40
:101090000AF1FF0AF2E7C3F57F43FF334B44C0E791
:1010A000994502DAA3EB0903BBE7C9F57F4909F1CA
:1010B000FF09F3E76804002020040020200000203E
:1010C00000000020B38F0008A48F0008034B1A68AB
:1010D0000023D363024A126853637047D803002089
:1010E0004803002010B50A4C0821204602F064FE97
:1010F0002046084C0C2102F05FFE0021204602F041
:101100005BFE20460421BDE8104002F055BE00BF42
:10111000D80300204803002008B1FFF7D7BF034BD6
:101120001B681864024B1B6898637047D803002043
:10113000480300200000000010B501460020FFF722
:10114000EBFF094B08461C68FFF7ECF904A3D3E951
:101150000023FFF751FAFFF727FD206410BD00BF01
:10116000713D0AD7A370F13FD803002008B50146AE
:101170000020FFF7D1FF024B1B68996308BD00BF39
:101180004803002070B51B4C1B4D1C4E4FF47A7366
:1011900086B0E361EB614FF4966363616B61E06974
:1011A000FFF7CAFFE869FFF7E1FFA36994ED037A4F
:1011B00083EAE372A2EBE37263699B1A07EE903A4B
:1011C000F8EEE77A324637EE277AC4ED047AFDEE80
:1011D000E77A142117EE903A01A884ED037A05F01E
:1011E00001FD01AA28210A2004F03AFF012003F0A2
:1011F000C1F9D4E72000002000000020C28F0008C1
:101200002DE9F041224D86B001244FF47A770DF19B
:1012100017062346CDE9014700960622D02128462D
:101220004FF000088DF8174001F0E6FC2346CDE9A9
:10123000014700960722D02128468DF8178001F03B
:10124000DBFC2346CDE9014700960322D021284646
:101250008DF8178001F0D0FC02238DF81730CDE90E
:101260000147234600960F22D021284601F0C4FCF6
:1012700008238DF81730CDE9014700962346312227
:101280001821284601F0B8FC06B0BDE8F08100BF87
:10129000B004002030B585B037238DF80B30FFF750
:1012A000AFFF4FF47A7003F065F90B4C4FF47A7589
:1012B0000DF10B0200950123D021204601F048FAE0
:1012C0000095022303AAD021204601F01BFB0A202F
:1012D00003F050F9EAE700BFB004002000B595B074
:1012E0002C22002109A805F018FD1422002103A8D2
:1012F00005F013FD0023194A0193116C41F0805150
:101300001164126C02F080520192019A144A029305
:10131000116841F48041116012680E9302F480421A
:101320000292029A0222089201201022CDE90B02B9
:1013300008A801F00DFD014608B172B6FEE70F23C3
:10134000CDE90330CDE90500079003A801F0DCFEEC
:1013500008B172B6FEE715B05DF804FB0038024034
:101360000070004080B594B000F0FEFDFFF7B6FFBE
:10137000142200210BA805F0D0FC0024A44B0094FB
:101380001A6BA44842F010021A631A6B02F01002A2
:101390000092009A01941A6B42F002021A631A6BCF
:1013A00002F002020192019A02941A6B42F00802C2
:1013B0001A631A6B02F008020292029A03941A6BE3
:1013C00042F004021A631A6B02F004020392039AB9
:1013D00004941A6B42F001021A631B6B03F00103C1
:1013E000049322464FF48071049B00F07DFF8A48ED
:1013F00022464FF4F04100F077FF224687484FF431
:10140000807100F071FF4FF480754FF00108814842
:101410000BA9CDE90B58CDE90D4400F087FE4FF440
:10142000F0437D480BA9CDE90B38CDE90D4400F020
:101430007DFE7A480BA9CDE90B58CDE90D4400F0AB
:1014400075FE1022214607A805F067FC744D1C228A
:1014500021460BA8CDE9054405F05FFC714BAC605B
:1014600041F61F462846C5E90034C5E90364AC616E
:1014700002F06EF908B172B6FEE74FF4805707A983
:101480002846079702F092FB08B172B6FEE728469D
:1014900002F08AF908B172B6FEE7CDE9050005A9A8
:1014A000284602F00DFD08B172B6FEE76023CDE9D3
:1014B0000B300F90022308220BA928460D9302F04F
:1014C0004FFA08B172B6FEE70C220BA9284602F0CB
:1014D00047FA044608B172B6FEE7284600F0B4FBAE
:1014E000514D214620220CA805F017FC4FF08043F7
:1014F000C5E900344FF6FF73C5E903340BA9032394
:101500002846CDE90744AC60AC610B93CDF834803C
:10151000CDF8448002F0A0F908B172B6FEE7CDE93B
:10152000070007A9284602F0CBFC044608B172B6B2
:10153000FEE70146102207A805F0EFFB3B4D1C22F9
:1015400021460BA805F0E9FB394B2C612846C5E97B
:101550000034C5E90246AC6102F0FAF808B172B68F
:10156000FEE707A92846079702F020FB08B172B6EC
:10157000FEE72E4802F018F9024608B172B6FEE7FF
:101580006027CDE90B7002230F900BA927480D931C
:1015900002F0E6F908B172B6FEE7244804220BA96E
:1015A00002F0DEF9044608B172B6FEE71F48214D8D
:1015B00000F04AFB1022214607A805F0AEFB1C22D2
:1015C00021460BA805F0A9FBDFF86CC0AC604FF416
:1015D000A073C5E900C34FF47A73C5E90334284604
:1015E0008023AB6102F0B4F808B172B6FEE74FF4A5
:1015F000805607A92846079602F0D8FA08B172B6B5
:10160000FEE7284602F0D0F80246B8B172B6FEE70F
:101610000038024000100240000C02400008024066
:10162000D803002000080040680400204803002080
:10163000004001400003002000180040CDE90B707D
:101640000D900F900BA9284602F08AF9044608B1C4
:1016500072B6FEE7284600F0F7FA1022214607A8E6
:1016600005F05BFB6E4D6F4F102221460BA8CDE9B4
:10167000054405F052FB0F23C5E9007328464FF6D9
:10168000FF73C5E90334C5E90544AC6002F060F8B6
:1016900008B172B6FEE707A92846079602F086FA57
:1016A00008B172B6FEE7284602F0AAF808B172B691
:1016B000FEE700235A4805A9CDE9053302F000FCF6
:1016C00008B172B6FEE7CDE90D000A2654484FF086
:1016D000010804220BA9CDE90B6802F0D1F90446F8
:1016E00008B172B6FEE7014620220CA805F015FBF2
:1016F0004D4D4E4BAC60C5E900344FF6FF770323E8
:101700000BA92846CDE90744C5E90374AC610B93E6
:10171000CDF83480CDF8448002F09EF808B172B65E
:10172000FEE7CDE9070007A9284602F0C9FB0346FA
:1017300008B172B6FEE73E483E4C03610F22C0E995
:1017400002378361C0E9004202F002F8034608B1A3
:1017500072B6FEE73848394A39490362C0E90012D7
:101760004FF48042C0E90233C0E90423C0E90633E4
:1017700000F046FF08B172B6FEE7324D324A2861EA
:101780004FF4E133C5E900230C23C5E90200C5E9A4
:101790000530E861284602F05FFC044608B172B6E5
:1017A000FEE704F07DFCFFF79DFC28493246284601
:1017B00002F051FE02F06EFE254A2648214602F054
:1017C00095FE254B254A18602146254802F08EFEDD
:1017D000244B254A18602146244802F087FE244BFA
:1017E000244A18602146244802F080FE234B244AF4
:1017F00018602146234802F079FE234B234A1860E3
:101800002146234802F072FE224B234A18602146EB
:10181000224802F06BFE224B186002F04DFEFEE7FC
:101820009003002000040140200400200004004038
:10183000B802002000200040B0040020801A0600FA
:101840000058004070020020004800403402002090
:1018500078920008150F00086C02002054920008CE
:10186000790F0008680200203092000885110008F6
:10187000640200200C920008B50F000860020020EE
:10188000E8910008310F00085C020020C4910008B4
:101890005119000858020020A09100089512000874
:1018A0005402002038B5064D0446284601F084FD58
:1018B0002B6800225A625A6AA242FCD338BD00BF8C
:1018C000B80200201C4B984210B5044610D11B48AA
:1018D000802100F003FD01280BD10421204601F0F6
:1018E00036FE07EE900A164BF8EE677AC3ED007AE3
:1018F00010BD1248802100F0F1FC0028F8D104212D
:10190000204601F024FE07EE900A0E4BF8EE677AAF
:10191000C3ED007A0A4BD3ED006A0B4BF4EEE67A86
:10192000F1EE10FADBBF9FED097A37EE667A77EEBB
:10193000E67A77EE277AD9E7900300200008024084
:101940004C02002048020020500200200000804786
:1019500008B5124C124D00224FF48071204600F061
:10196000C3FC322000F02CFB01224FF48071204692
:1019700000F0BAFC0A20FFF795FF00224FF48071B7
:10198000204600F0B1FC322000F01AFB042128466A
:1019900002F014FA2846FFF795FFDCE70008024042
:1019A000900300200268034B9A4201D100F0F6BA7E
:1019B000704700BF0010004082B00E4B0022009222
:1019C000596C41F480415964596C01F48041009193
:1019D00000990192196C41F0805119641B6C03F05D
:1019E00080530193019B0F216FF0010002B000F0C2
:1019F0000DBB00BF0038024030B5044689B0142248
:101A0000002103A805F089F92268144B9A4222D1DB
:101A1000134C144800250195236B43F00203236304
:101A2000236B03F002030193019B4FF440621223E6
:101A3000CDE9032303210423CDE9061303A900F014
:101A400075FB0295236C43F480032364236C03F439
:101A500080030293029B09B030BD00BF00580040D4
:101A6000003802400004024070B514228AB00446D7
:101A700000210DEB020005F050F92368B3F1804F0F
:101A800037D103F50E33002400941A6C284842F035
:101A900001021A641A6C02F001020092009A019489
:101AA0001A6B42F001021A631A6B02F001020192F2
:101AB000019A02941A6B42F002021A631B6B03F044
:101AC00002030293029B02264FF40043012505A95D
:101AD000CDE90536099500F029FB0823CDE9053647
:101AE000CDE907440995134805A900F01FFB0AB08A
:101AF00070BD114A9342FAD1104B002103911A6C28
:101B000042F002021A641A6C02F002020392039A73
:101B100004911A6B42F002021A631B6B03F002037A
:101B20000493049B30220223CDE905230993DAE7CD
:101B3000000002400004024000040040003802405F
:101B400010B504468CB01422002107A805F0E5F872
:101B50002368364A93420DD100230193344B1A6C0B
:101B600042F004021A641B6C03F004030193019B0E
:101B70000CB010BD2F4A934228D12D4B2E48002483
:101B800002945A6C42F002025A645A6C02F0020249
:101B90000292029A03941A6B42F004021A631B6BBE
:101BA00003F004030393039B80220223CDE9072360
:101BB00007A903230B9300F0B9FA224605212E2032
:101BC00000F024FA2E2000F053FAD1E71B4A93428A
:101BD0000CD100230493164B5A6C42F480325A64A1
:101BE0005B6C03F480330493049BC1E7144A934273
:101BF0000CD1002305930E4B1A6C42F040021A647C
:101C00001B6C03F040030593059BB1E70D4A93421B
:101C1000AED100230693064B1A6C42F480721A640C
:101C20001B6C03F480730693069BA1E70008004039
:101C3000003802400004014000080240004001401A
:101C4000001800400020004010B5044688B014225F
:101C5000002103A805F061F82368244A934214D1B7
:101C600000230093224B1A6B42F002021A631B6B93
:101C700003F002030093009B4FF440700223CDE970
:101C800003031C48079303A916E01B4A934217D18C
:101C900000230193164B19481A6B42F010021A6385
:101CA0001B6B03F0100301936021019B0223CDE91C
:101CB00003130323079303A900F038FA08B010BDFB
:101CC0000F4A9342FAD100230293094B1A6B42F058
:101CD00002021A631B6B03F002030293029B4FF490
:101CE00080420223CDE903230923CAE7000800400C
:101CF0000038024000040240004001400010024051
:101D00000018004010B5044688B01422002103A832
:101D100005F003F82268184B9A422BD103F5F833EB
:101D2000002401941A6C154842F480221A641A6C3B
:101D300002F480220192019A02941A6B42F0080286
:101D40001A631B6B03F0080302934FF44072029B6B
:101D50000223CDE9032303210723CDE9061303A9B9
:101D600000F0E4F927202246052100F04FF9272052
:101D700000F07EF908B010BD00480040000C0240A1
:101D800070B588B000230293204B1A6C42F0100209
:101D90001A641B6C03F010030293054601A903A803
:101DA000029B01F06BFA069B4BBB01F047FA184E01
:101DB000184B336040F2E733F360174BB0FBF3F39B
:101DC000013B7360304600233361B360B36101F0BF
:101DD000BFFC044680B9304601F024FB044658B9E4
:101DE000362000F045F90F2D0DD822462946362021
:101DF00000F00CF9094B1D60204608B070BD01F0E1
:101E00001DFA4000D3E70124F6E700BF0038024086
:101E1000040500200010004040420F004800002050
:101E2000FEE7FEE7FEE7FEE7FEE77047014802F047
:101E3000A9B900BF70020020014801F0A1BB00BF9A
:101E400090030020014801F09BBB00BF0405002067
:101E50000120704708B505F011F8162303604FF014
:101E6000FF3008BD08B505F009F816230360FEE74A
:101E700070B50D4614460E46731B9C4201DC20468D
:101E800070BDAFF3008006F8010BF5E770B50D46A5
:101E900014460E46731B9C4201DC204670BD16F8AA
:101EA000010BAFF30080F5E74FF0FF3070474FF4C0
:101EB00000534B600020704701207047002070479E
:101EC0000B4A116810B5034609B90A491160106838
:101ED00009490A4C0344091B8B4206D904F0CEFF82
:101EE0000C2303604FF0FF3010BD1360FCE700BF10
:101EF0004C0500208854002000000220000400004F
:101F0000034AD2F8883043F47003C2F8883070472F
:101F100000ED00E0DFF834D0FFF7F2FF0C480D4988
:101F20000D4A002302E0D458C4500433C4188C4234
:101F3000F9D30A4A0A4C002301E013600432A2429A
:101F4000FBD304F0A1FFFFF70DFA70470000022059
:101F500000000020180200202C9F0008180200201A
:101F600084540020FEE7000008B50B4B1A6842F4C9
:101F700000721A601A6842F480621A601A6842F4A9
:101F800080721A60032000F02FF80F20FFF7F8FE90
:101F9000FFF712FD002008BD003C0240034A044B3D
:101FA00011681B780B441360704700BF5005002078
:101FB00044000020014B1868704700BF5005002006
:101FC00038B50446FFF7F6FF631C1CBF054B1B78B2
:101FD000054618BFE418FFF7EDFF431BA342FAD3F1
:101FE00038BD00BF440000200749CA6822F4E062FF
:101FF0000302120403F4E063120C134343F0BF63C3
:1020000043F40033CB60704700ED00E0164B30B571
:10201000DC68C4F30224C4F10703251D042B28BF88
:102020000423062D4FF0FF358CBF033C002405FA36
:1020300003F321EA0303A54022EA0502A340002896
:1020400043EA0203ACBF00F16040084A4FEA0313C1
:10205000B8BF00F00F00DBB2AABF00F56140135417
:1020600080F8003330BD00BF00ED00E014ED00E06B
:10207000002807DB044A4109012300F01F008340C8
:1020800042F82130704700BF00E100E070B504461F
:10209000866DFFF78FFF94F83530022B054606D08A
:1020A000802363650120002384F8343070BD2368E9
:1020B0001A6822F016021A605A6922F080025A61E8
:1020C000226C0AB9A26C1AB11A6822F008021A60CE
:1020D0001A6822F001021A602368186810F00100E3
:1020E00007D1E26D3F239340B360012384F835307C
:1020F000D9E7FFF75FFF401B0528EDD92023032018
:10210000636584F83500CEE790F83530022B03D0B4
:1021100080234365012070470268052380F835302D
:10212000136823F001031360002070472DE9F74F77
:10213000DFF8A491664A00230D6801249C4004EA5C
:102140000506AC4340F0AF804D68032705F003045B
:102150004FEA430807FA08FC671E012F6FEA0C0CD0
:1021600034D8876807EA0C0ECF6807FA08F747EA01
:102170000E078760476827EA060EC5F300179F40E1
:1021800047EA0E074760C76807EA0C0E8F6807FA30
:1021900008F747EA0E07022CC76019D14FEAD30AA5
:1021A00000EB8A0A03F0070BDAF820704FEA8B0B7A
:1021B0004FF00F0E0EFA0BFE27EA0E0E0F6907FA0C
:1021C0000BF747EA0E07CAF8207001E0032CDAD1BA
:1021D000076804FA08F407EA0C073C4315F4403F8B
:1021E000046060D000240194D9F8444044F4804451
:1021F000C9F84440D9F8444023F0030707F1804769
:1022000004F4804407F59C37019403F0030C019C0F
:10221000D7F808E04FEA8C0C0F2404FA0CF42EEAED
:10222000040E2C4CA04245D004F58064A04243D05B
:1022300004F58064A04241D004F58064A0423FD000
:1022400004F58064A0423DD004F58064A0423BD0F8
:1022500004F58064A04239D004F58064A04214BF24
:102260000824072404FA0CF444EA0E04BC609468C1
:10227000F74315F4801F0CBF3C4034439460D4688E
:1022800015F4001F0CBF3C403443D460546815F46F
:10229000003F0CBF3C40344354601468ED0354BF0E
:1022A0003C40344314600133102B7FF445AF03B03E
:1022B000BDE8F08F0024D5E70124D3E70224D1E75D
:1022C0000324CFE70424CDE70524CBE70624C9E7A0
:1022D000003C0140000002400038024003691942FE
:1022E00014BF0120002070470AB1816170470904C2
:1022F000FBE7436901EA030221EA030141EA0241E3
:102300008161704701684B6913F480634FF00002EC
:1023100010D06FF480634B612023026380F83D305E
:1023200080F83E20036C80F83C2043F004030364F3
:1023300001207047184670472DE9F84606460F46BB
:1023400091461D464FEA114A3368BAF1010F0CBF9E
:102350005C699C6927EA0404A4B2B4FA84F46409B1
:10236000A14501D0002025E06A1CEED0FFF722FE37
:10237000089BC01AA84201D8002DE5D13368BAF1F4
:10238000010F0CBF5B699B6927EA03039BB2B3FA99
:1023900083F35B099945D7D100232022336386F864
:1023A0003D2086F83E30326C86F83C3042F0200208
:1023B00032640120BDE8F8862DE9F04104460F465D
:1023C000164698462568686927EA000080B2C0B1C1
:1023D0006B695A0517D52B6843F400732B606FF4B3
:1023E00080636B6120220023236384F83D2084F8FE
:1023F0003E30236C43F004032364002384F83C3014
:102400000120BDE8F081731CDDD0FFF7D3FDA0EB08
:102410000800B04201D8002ED4D123685A6927EAB7
:10242000020292B2002ACDD000232022236384F836
:102430003D2084F83E30236C1343DDE770B504463D
:102440000D46164623685B691B0601D500201EE079
:102450002046FFF757FFC8B96A1CF3D0FFF7AAFD63
:10246000801BA84201D8002DECD123685B6913F0D2
:102470008003E7D12022236384F83D2084F83E3096
:10248000226C84F83C3042F020022264012070BDAE
:102490002DE9F0431546026885B0DDE90C789946D0
:1024A000136843F4807313600E463B46CDF80080FA
:1024B00000224FF001110446FFF73EFF236838B1B8
:1024C0001B68DB0502D54FF400732364032620E06C
:1024D00006F0FE061E611A4943463A462046FFF7BB
:1024E0006BFFA8B9236803905A6903929B69039311
:1024F000424639462046039BFFF7A0FF064660B1DF
:10250000236C042B01BF2268136843F4007313602B
:102510000126304605B0BDE8F083B9F1010F23680C
:1025200002D1EDB21D61F4E72A0A1A61394642462A
:102530002046FFF783FF0028E2D12368F1E700BFC0
:102540000200010070B504460D46164623685B691B
:102550005B0701D500201EE02046FFF7D3FEC8B977
:102560006A1CF3D0FFF726FD801BA84201D8002D7E
:10257000ECD123685B6913F00403E7D120222363C5
:1025800084F83D2084F83E30226C84F83C3042F0E0
:1025900020022264012070BD70B504460D46164627
:1025A00021684B6913F0400301D0002011E04A6913
:1025B000D2060FD56FF010024A612022236384F8FF
:1025C0003D2084F83E30236C2364002384F83C30A3
:1025D000012070BDFFF7EEFC801BA84201D8002D42
:1025E000DED123685B6913F04003D9D12022236335
:1025F00084F83D2084F83E30236C1343E4E7000068
:1026000070B5044608B9012070BD90F83D3003F064
:10261000FF021BB980F83C20FFF7EEF9242384F871
:102620003D3023681A6822F001021A601A6842F4E9
:1026300000421A601A6822F400421A6000F0FEFD9F
:102640003F4B65689D4294BF3E4B3F4B98428CBFC9
:1026500000230123002BD6D12268394E51683B4B11
:10266000B0FBF3F321F03F011943B542516088BF3D
:102670004FF49676116A88BF734321F03F0184BFFF
:102680004FF47A76B3FBF6F301330B431362D1694F
:10269000431E2B4821F44F41854221F0FF0132D8DF
:1026A0006D0040F6FC70B3FBF5F30133034242D0FA
:1026B000C3F30B031943D161D4E907301168034315
:1026C00021F0C0010B4313609168D4E9030321F4A6
:1026D0000341034321F0FF010B439360D4E905302C
:1026E000D168034321F0FF010B43D360136843F02B
:1026F0000103136000202023206484F83D30206310
:1027000084F83E0080E7A06850B905EB4505B3FBAF
:10271000F5F30133C3F30B037BB143F40043C9E783
:1027200019206843B3FBF0F30133C3F30B0323B168
:1027300043F44043BEE70423BCE70123BAE700BFEC
:10274000A08601007F841E00FF083D0040420F006C
:102750002DE9F043044685B098460C9F0D469146FE
:10276000FFF728FC94F83D30202B064604D00225C4
:10277000284605B0BDE8F08300905E491923012288
:102780002046FFF7D9FD0028F1D194F83C30012B09
:10279000EDD02168012384F83C300B68DA075EBF76
:1027A0000B6843F001030B600B6823F400630B60BC
:1027B000212384F83D30102384F83E300023236425
:1027C000A4F82A80638D23854B4BE362E36AC4F847
:1027D0002490082B04D0012B02D013F5803F04D1A4
:1027E0000B6843F480730B6002E0236B122BF7D06D
:1027F000002200963B464FF001112046FFF79CFD5A
:10280000226840B11368DB0501D40125B0E74FF41D
:1028100000732364F9E72369B3F5804F21D105F0F4
:10282000FE051561354933463A462046FFF7C4FD9B
:1028300005460028E9D1236803905A6903929B69F1
:102840000393039B238DF3B921680A6842F4007255
:102850000A60202284F83D2084F83C3084F83E3021
:1028600086E7EB1103F0060343F0F00313612449FC
:1028700033463A462046FFF79FFD0028C5D123681E
:10288000EDB21D61CEE7324639462046FFF7D6FD50
:1028900040B1236C042BB8D12268136843F4007351
:1028A0001360B2E7636A20681A4612F8011B0161DF
:1028B0006262628D013A92B26285228DD0F814C0B4
:1028C000511E89B21CF0040F21850AD049B15978F4
:1028D000016102336362638D013B9BB2023A6385FF
:1028E0002285324639462046FFF72CFE0028A9D023
:1028F000CFE700BF020010000000FFFF0200010050
:10290000080001002DE9F043044689B09846109F65
:102910000E469146FFF74EFB94F83D30202B0546BE
:1029200004D00226304609B0BDE8F08300909A49F1
:10293000192301222046FFF7FFFC0028F1D194F86B
:102940003C30012BEDD02168012384F83C300B682A
:10295000DB075EBF0B6843F001030B600B6823F4D9
:1029600000630B60222384F83D30102384F83E304E
:1029700000232364A4F82A80638D2385874BE362B8
:10298000E36A0A68C4F8249042F48062082B0A6063
:1029900004D0012B02D013F5803F04D10B6843F41F
:1029A00080730B6002E0236B112BF7D03B46009540
:1029B00000224FF001112046FFF7BEFC236838B11A
:1029C0001B68DD0544BF4FF4007323640126A9E7AB
:1029D0002269B2F5804F27D146F00106F6B21E619A
:1029E0006F492B463A462046FFF7E6FC064600288C
:1029F000ECD1238D2168002B4BD103904B690393BD
:102A00008B690393039B0B6843F400730B60DFF83F
:102A10009881238D002B64D1202284F83D2084F8F6
:102A20003C3084F83E307DE74FEAE61808F00608AF
:102A300048F0F0021A615B492B463A462046FFF700
:102A4000BBFC0028C2D123685549F6B21E613A4644
:102A50002B462046FFF7B0FC02460028B6D123687B
:102A6000079059690791996907910799196841F485
:102A700080711960204600953B464FF00111FFF729
:102A80005BFC226808B113689BE748F0F10313610F
:102A9000A6E7012B0AD10B6823F480630B60049036
:102AA0004B6904938B690493049BACE7022B0B687E
:102AB0000DD123F480630B600B6843F400630B605B
:102AC00005904B6905938B690593059B9FE743F43C
:102AD00080630B6006904B6906938B690693069B97
:102AE00095E7032B62D8012B16D12A46394620469A
:102AF000FFF752FD00287FF469AF23681A69636A03
:102B00001A70636A01336362238D013B2385638DF1
:102B1000013B9BB263857CE7022B00953B464FF05F
:102B20000002414620461AD1FFF706FC00287FF438
:102B30004DAF23681A6842F400721A601A69636A1A
:102B40001A70626A531C6362238D013B2385638D77
:102B5000013B9BB2638523681B695370D1E7FFF784
:102B6000EBFB024600287FF431AF2368196821F49B
:102B7000806119601969636A1970636A013363625D
:102B8000238D013B2385638D013B9BB263854146C9
:102B900000953B462046C7E7020010000000FFFFFB
:102BA0000200010008000100040001002A46394625
:102BB0002046FFF7F1FC00287FF408AF23681A696C
:102BC000636A1A70628D616A013A92B24B1C628527
:102BD00022686362238D5069013B9BB240072385C5
:102BE0007FF517AF032B02BF136823F480631360D4
:102BF00013694B7085E700BF2DE9F74304469946FA
:102C00000C9E0F469046FFF7D5F994F83D30202BE7
:102C1000054603D0022003B0BDE8F08300903C4994
:102C2000192301222046FFF787FB0028F2D194F8F0
:102C30003C30012BEED02068012384F83C3003683F
:102C4000D9075EBF036843F001030360036823F400
:102C500000630360212384F83D30402384F83E3034
:102C6000002323640A9B6362BDF82C306385638D67
:102C70002385284BE3624246CDE900654B46394641
:102C80002046FFF705FC00282AD00120C3E7FFF704
:102C9000D5FB40B1236C042B01BF2268136843F4B9
:102CA00000731360F1E7636A27681A4612F8011B84
:102CB00039616262628D218D013A92B262857A69D0
:102CC000481E80B2520720850AD548B15A783A6129
:102CD00002336362638D013B02399BB221856385B8
:102CE000238D2A4631462046002BD0D1FFF72AFCFF
:102CF0000028CFD12268136843F4007313602023A7
:102D000084F83D3084F83C0084F83E0083E700BF3F
:102D1000020010000000FFFF044B012282B01A6283
:102D2000034B1B680193019B02B0704700000E42E9
:102D300000700040044B002282B01A62034B1B68F3
:102D40000193019B02B0704700000E4200700040EA
:102D50002DE9F341044640B30368DE0710D423682D
:102D60009D075BD42368190700F19D8023685A07EB
:102D700000F1BD80A369002B40F0248100202CE0ED
:102D80008D4B9A6802F00C02042A07D09A6802F070
:102D90000C02082A0BD15B68590208D5864B1B68C8
:102DA0009A03DCD56368002BD9D1012015E0636854
:102DB000814DB3F5803F13D12B6843F480332B60F2
:102DC000FFF7F8F87C4E054633689B03C7D4FFF73E
:102DD000F1F8401B6428F7D9032002B0BDE8F08168
:102DE000B3F5A02F04D12B6843F480232B60E3E7D5
:102DF0002A6822F480322A602A6822F480222A601B
:102E0000002BDDD1FFF7D6F806462B689F03A6D529
:102E1000FFF7D0F8801B6428F7D9DDE7664B9A6886
:102E200012F00C0F07D09A6802F00C02082A11D198
:102E30005B685D020ED4604A1368990702D5E368A7
:102E4000012BB2D11368216923F0F80343EAC103CF
:102E5000136087E7E268594BB2B101221A60FFF7AD
:102E6000A9F8554D06462B689B0707D52B682269A4
:102E700023F0F80343EAC2032B6073E7FFF79AF8E5
:102E8000801B0228EFD9A7E71A60FFF793F84A4E94
:102E9000054633689F077FF565AFFFF78BF8401B4A
:102EA0000228F6D998E76269444B82B10122C3F83F
:102EB000802EFFF77FF8404E0546736F9B073FF566
:102EC00055AFFFF777F8401B0228F6D984E7C3F81F
:102ED000802EFFF76FF8384E0546736F9F077FF51A
:102EE00045AFFFF767F8401B0228F6D974E7324B6D
:102EF0001A6C12F0805228D101921A6C42F0805262
:102F00001A641B6C03F080530193019B01272C4D25
:102F10002B68D8051BD5A368274D012B27D12B6F14
:102F200043F001032B67FFF745F8234E054641F2B6
:102F30008838336F9A0739D5002F3FF41BAF1E4AEC
:102F4000136C23F08053136414E70027DFE72B682A
:102F500043F480732B60FFF72DF806462B68D905E4
:102F6000D9D4FFF727F8801B0228F7D934E7052BBF
:102F700004D12B6F43F004032B67D0E72A6F22F0B4
:102F800001022A672A6F22F004022A67002BCAD1A5
:102F9000FFF710F841F2883806462B6F9B07CBD518
:102FA000FFF708F8801B4045F7D915E7FFF702F84F
:102FB000401B4045BDD90FE70038024000004742A2
:102FC00000700040374DAA6802F00C02082A3ED07B
:102FD000022B354B4FF000021A662BD1FEF7EAFFA9
:102FE00006462B6899011FD4D4E907321343626A5D
:102FF00043EA8213E26A43EA0263A26A5208013A90
:1030000043EA02436B60284B264D01221A66FEF705
:10301000D1FF04462B689A013FF5B0AEFEF7CAFF18
:10302000001B0228F6D9D7E6FEF7C4FF801B022852
:10303000D7D9D1E6FEF7BEFF04462B689B017FF58A
:103040009DAEFEF7B7FF001B0228F6D9C4E6012BA0
:103050003FF4ABAE6B68E26903F4800191427FF408
:10306000A4AE216A03F03F028A427FF49EAE616AF9
:1030700047F6C0721A40B2EB811F7FF496AEA26A87
:10308000520803F44031013AB1EB024F7FF48DAEA8
:10309000E26A03F07063B3EB026F14BF01200020FB
:1030A0009BE600BF0038024000004742134908B5C4
:1030B0008B6803F00C03042B1CD0082B1CD14A682E
:1030C0004B68496813F4800314BF0D480D48C1F3E1
:1030D000881118BF002302F03F02A1FB0001FDF799
:1030E00083FD064B5B68C3F3014301335B00B0FB18
:1030F000F3F008BD0248FCE70248FAE70038024056
:1031000040787D010024F4002DE9F0410D4604468D
:1031100010B90120BDE8F081434B1A6802F00702A4
:103120008A4228D321688F072DD4C80740D43E4B4C
:103130001A6802F00702AA4265D8226851076BD4C8
:10314000130707D5394A2169936823F4604343EA9A
:10315000C1039360FFF7AAFF344B354A9B68C3F362
:103160000313D35CD840334B1860334B1868FEF719
:1031700007FE0020CEE7CAB21A701B6803F00703EF
:103180008B42C6D1CEE7294B11F0040F1EBF9A68BF
:1031900042F4E0529A600E0742BF9A6842F46042DD
:1031A0009A609A68A06822F0F00202439A60BCE735
:1031B00062681E4B012A1CD11B6813F4003FA8D083
:1031C0001A4EB36823F003031343B360FEF7F2FE15
:1031D00041F288380746B368626803F00C03B3EB2A
:1031E000820FA4D0FEF7E6FEC01B4045F3D90320B2
:1031F00090E7911E01291B6802D813F0007FDEE7DB
:1032000013F0020FDBE7EAB21A701B6803F0070342
:10321000AB427FF47EAF90E70449E0688B6823F40B
:10322000E05303438B608BE7003C024000380240D0
:10323000A49200084000002048000020044B054AEA
:103240009B68C3F38223D35C034A1068D84070475D
:10325000003802409C92000840000020044B054AC0
:103260009B68C3F34233D35C034A1068D84070476D
:10327000003802409C920008400000200F230360A9
:103280000B4B9A6802F0030242609A6802F0F00267
:1032900082609A6802F4E052C2609B68DB0803F423
:1032A000E0530361034B1B6803F007030B60704797
:1032B00000380240003C0240036A026A22F0010228
:1032C00070B50262446882690D6822F073022A4375
:1032D0008D6823F002032B430C4DA84203D005F563
:1032E0008065A8420BD1CD6823F008032B43D1E9B8
:1032F000055624F44074354323F004032C43446002
:1033000082614A684263036270BD00BF00000140F1
:10331000036A026A22F4807270B502624468C2696C
:103320000D6822F073022A438D6823F4007343EA88
:1033300005230D4DA84203D005F58065A8420DD1A7
:10334000CD6823F4006343EA0523D1E9055624F44C
:103350004054354323F4806344EA05144460C26159
:103360004A68C263036270BD00000140036A026ADA
:1033700022F4805230B502624468C2690D6822F4BA
:10338000E64242EA05228D6823F4005343EA0533FE
:10339000084DA84203D005F58065A84204D14D69C7
:1033A00024F4804444EA85144460C2614A6802649B
:1033B000036230BD0000014090F83D30012B2CD15C
:1033C0000223174A80F83D30036893421AD0B3F1C4
:1033D000804F17D0A2F57C42934213D002F5806251
:1033E00093420FD002F5806293420BD002F57842EF
:1033F000934207D002F57052934203D0A2F5943263
:10340000934204D19A6802F00702062A03D01A6890
:1034100042F001021A60002070470120704700BF8F
:103420000000014090F83D30012B30D1022380F89C
:103430003D300368DA6842F00102DA60154A9342CF
:103440001AD0B3F1804F17D0A2F57C42934213D02B
:1034500002F5806293420FD002F5806293420BD056
:1034600002F57842934207D002F57052934203D09E
:10347000A2F59432934204D19A6802F00702062A18
:1034800003D01A6842F001021A6000207047012040
:10349000704700BF000001407047704730B50346D9
:1034A00090F83E0093F83F2093F8425093F8434041
:1034B000C0B2D2B2EDB2E4B2C1B9012845D1012DFA
:1034C00013D1022283F83E2083F842201A68116A41
:1034D00021F001011162116A41F0010111621A68C3
:1034E000136843F001031360002030BD042911D19B
:1034F000012A2AD1012C28D1022283F83F2083F807
:1035000043201A68116A21F010011162116A41F01A
:103510001001E3E7012818D1012AE6D1012DE4D1F9
:10352000012CE2D1022283F83E2083F83F2083F869
:10353000422083F843201A68116A21F001011162C8
:10354000116A41F001011162DCE70120CDE7082991
:1035500010D004D841B1042909D0002070470C29AB
:10356000FBD10368186C70470368586B7047036899
:10357000986B70470368D86B704770477047704707
:10358000036870B5DD681E69B10704460DD5AA074A
:103590000BD56FF002021A61012202779B699B072B
:1035A00069D0FEF78FF900232377710710D56A07DA
:1035B0000ED523686FF004021A61022222779B69FC
:1035C00013F4407F20465CD0FEF77CF9002323777C
:1035D00033070FD528070DD523686FF008021A614D
:1035E00004222277DB699907204650D0FEF76AF95A
:1035F00000232377F20610D5EB060ED523686FF073
:1036000010021A6108222277DB6913F4407F2046FA
:1036100043D0FEF757F900232377F00708D5E907D1
:1036200006D523686FF001021A612046FEF7BAF949
:10363000320608D52B0606D523686FF080021A6182
:10364000204600F07CFC700608D5690606D5236884
:103650006FF040021A612046FFF791FFB20622D5B3
:10366000AB0620D523686FF0200220461A61BDE822
:10367000704000F063BCFFF780FF2046FFF77EFF3D
:1036800091E7FFF77AFF2046FFF778FF9EE7FFF705
:1036900074FF2046FFF772FFAAE7FFF76EFF204690
:1036A000FFF76CFFB7E770BD274A0368904212D05E
:1036B000B0F1804F0FD0A2F57C4290420BD002F5C2
:1036C0008062904207D002F58062904203D002F5FA
:1036D0007842904208D14A6823F070031343CA68C5
:1036E00023F44073134316E0184A9042F7D002F5D2
:1036F00080629042F3D002F580629042EFD0A2F552
:1037000098329042EBD002F580629042E7D002F509
:1037100080629042E3D04A6923F0800313438A68B1
:10372000C2620A688262084A904203D002F580624F
:10373000904201D10A690263026842F00402026009
:1037400001224261036070470000014000400140D7
:1037500010B5044630B390F83D3003F0FF021BB9BA
:1037600080F83C20FEF7ECF90223206884F83D3015
:10377000211DFFF799FF012384F84630002084F8CB
:103780003E3084F83F3084F8403084F8413084F88B
:10379000423084F8433084F8443084F8453084F86B
:1037A0003D3010BD0120FCE710B5044630B390F861
:1037B0003D3003F0FF021BB980F83C20FFF76CFEA0
:1037C0000223206884F83D30211DFFF76DFF01239F
:1037D00084F84630002084F83E3084F83F3084F886
:1037E000403084F8413084F8423084F8433084F823
:1037F000443084F8453084F83D3010BD0120FCE7AA
:1038000010B5044630B390F83D3003F0FF021BB909
:1038100080F83C20FFF741FE0223206884F83D3009
:10382000211DFFF741FF012384F84630002084F872
:103830003E3084F83F3084F8403084F8413084F8DA
:10384000423084F8433084F8443084F8453084F8BA
:103850003D3010BD0120FCE7F8B50D4604460028B8
:103860004CD090F83D3003F0FF021BB980F83C20AB
:10387000FEF7FAF82146022384F83D3051F8040B94
:10388000836823F4804323F007038360FFF70CFF72
:1038900081682A688369AE69076A1143AA6823F4BC
:1038A000407323F0030342EA06221A432B69EE69B0
:1038B0001B0143EA0623EE6833432E6A22F47C425E
:1038C00022F0FC0243EA063313436E696A688160A2
:1038D00027F0AA0742EA0612836117430123076211
:1038E00084F84630002084F83E3084F83F3084F875
:1038F000423084F8433084F83D30F8BD0120FCE7C5
:10390000036A026A22F0100270B50262446882699A
:103910000D6822F4E64242EA05228D6823F0200376
:1039200043EA05130D4DA84203D005F58065A84272
:103930000DD1CD6823F0800343EA0513D1E9055684
:1039400024F44064354323F0400344EA8504446092
:1039500082614A688263036270BD00BF000001405B
:1039600038B590F83C30012B04464FD00120082A8E
:1039700084F83C003AD006D8BAB1042A26D00023F5
:1039800084F83C3038BD0C2AF9D12068FFF7EEFCF2
:10399000C3690A6943F40063C361C36923F48063A4
:1039A000C361C36943EA02232EE02068FFF784FC69
:1039B00083690A6943F008038361836923F0040380
:1039C00083618369134383610020D8E72068FFF790
:1039D00097FF83690A6943F400638361836923F471
:1039E00080638361836943EA0223ECE72068FFF781
:1039F0008FFCC3690A6943F00803C361C36923F0FC
:103A00000403C361C3691343C361DDE70220B9E75F
:103A100070B5056A046A194E24F001040462B042CC
:103A2000846926D0B0F1804F23D0A6F57C46B04201
:103A30001FD006F58066B0421BD006F58066B04206
:103A400017D006F57846B04213D006F57056B0424E
:103A50000FD0A6F59436B0420BD044F0010263F3C8
:103A6000071201F00A0125F00A031943826101627D
:103A700070BD24F003042243F1E700BF00000140C1
:103A8000F8B590F83C30012B05460C4600F08280DA
:103A90000120082A85F83C005CD006D842B3042AED
:103AA00036D0002385F83C30F8BD0C2AF9D12B68BC
:103AB000CE68186AD1E90027196A21F48051196289
:103AC000D969120321F4407141EA072120F4204012
:103AD00002F4204266F30F310243D9611A62DA69B7
:103AE000A16822F44062DA61DA6942EA01224FE019
:103AF0002868CB68D1E90012FFF78AFF8369A268C2
:103B000023F00C0383618369134383610020C8E7BA
:103B10002B68CE68186AD1E90027196A21F01001D4
:103B200019629969120121F4407141EA072120F0DC
:103B3000A00002F0A00266F30F31024399611A62FD
:103B40009A69A16822F440629A619A6942EA012264
:103B50009A61DBE72B68E768186A1E6A26F48076AC
:103B6000D1E900211E62DE69120226F0030631430C
:103B700020F4206002F4206267F307110243D96148
:103B80001A62DA69A16822F00C02DA61DA690A4382
:103B9000DA61BBE7022087E710B584680A4324F4A2
:103BA0007F4442EA03222243826010BD38B590F878
:103BB0003C30012B04464FF0020000F08E8084F868
:103BC0003D000122206884F83C20836823F47F4371
:103BD00023F0770383600B68602B4FD032D8402BE3
:103BE00064D016D8202B0DD00AD833F0100109D09C
:103BF000012384F83D30002384F83C30104638BD62
:103C0000302BF5D1826822F07002134343F0070392
:103C100028E0502BECD14A68CD68016A036A23F092
:103C200001030362836921F00A0123F0F00343EAF0
:103C300005130A4383610262836823F0700343F033
:103C400057030FE0B3F5805F0DD0B3F5005F0CD0E4
:103C5000702BCDD1CB68D1E90121FFF79DFF83689F
:103C600043F0770383600022C2E7CB68D1E90121EA
:103C7000FFF792FF836843F48043F3E7036A026A25
:103C80004D68C96822F010020262826923F0A00325
:103C900022F4704243EA051342EA01328261036270
:103CA000836823F0700343F06703DBE74A68CD685D
:103CB000016A036A23F001030362836921F00A01A8
:103CC00023F0F00343EA05130A4383610262836829
:103CD00023F0700343F04703C4E702468EE7036A0C
:103CE00010B501F01F0101248C4023EA0403036294
:103CF000036A8A401A43026210BD000008B529B960
:103D000090F83E30012B1FD0012035E0042907D167
:103D100090F83F30012BF7D1022380F83F3016E0B6
:103D200008290CBF90F8403090F84130013B18BF93
:103D30000123002BE8D108294FF002030CBF80F8C3
:103D4000403080F8413002E0022380F83E300068C5
:103D50000122FFF7C4FF164B984203D003F580639E
:103D600098420AD1436C43F400434364836803F0F0
:103D70000703062B17D1002008BDB0F1804FF5D006
:103D80000C4B9842F2D003F580639842EED003F5D5
:103D900080639842EAD003F59A339842E6D0A3F5BF
:103DA00094339842E2D0036843F001030360E2E7F2
:103DB0000000014000040040FFF7A0BF08B5002943
:103DC0003ED190F83E2090F84230D2B2012ADBB2C8
:103DD00072D1012B70D10223002947D1026880F8EB
:103DE0003E3080F84230D36843F00203D36000686D
:103DF0000122FFF774FF314B98421AD0B0F1804F87
:103E000017D0A3F57C43984213D003F58063984202
:103E10000FD003F5806398420BD003F578439842A6
:103E200007D003F57053984203D0A3F5943398421A
:103E30003DD1836803F00703062B38D1002008BD6D
:103E4000042905D190F83F2090F84330D2B2BDE765
:103E500008290BBF90F8402090F8412090F844309A
:103E600090F845300CBFD2B2D2B2AFE7042908D1E6
:103E7000026880F83F3080F84330D36843F0040391
:103E8000B4E7082908D1026880F8403080F844304F
:103E9000D36843F00803A9E70C2980F8413080F883
:103EA000453009D10268D36843F010039EE70368E8
:103EB00043F001030360C1E70120C0E700000140B7
:103EC00030B590F83C30012B02464FF0020032D062
:103ED000136882F83D005C680D68986824F07004EF
:103EE0002C435C60144CA3421AD0B3F1804F17D01E
:103EF000A4F57C44A34213D004F58064A3420FD000
:103F000004F58064A3420BD004F57844A34207D0A3
:103F100004F57054A34203D0A4F59434A34204D111
:103F2000496820F08000014399600123002082F855
:103F30003D3082F83C0030BD0000014070477047C2
:103F4000026802F10C0353E8003F23F490730C3233
:103F500042E8003102680029F2D102F1140353E86B
:103F6000003F23F0010302F1140C4CE8003100295A
:103F7000F3D1036B012B0BD102F10C0353E8003F8B
:103F800023F0100302F10C0C4CE800310029F3D1AE
:103F9000202380F842300023036370470268C16821
:103FA00038B5136923F440530B4313610546836806
:103FB0000069D168034368690343E86921F4164145
:103FC00021F00C0103430B43D3605369A96923F427
:103FD00040730B4353611F4B9A4203D003F5806338
:103FE0009A4224D1FFF73AF9EA691921B2F5004F54
:103FF000D5E90043A0FB01011CD1DA184FF0000500
:1040000045EB0503FCF7F0FD6422B0FBF2F102FB87
:104010001103DB003233B3FBF2F303F007025B0062
:1040200002EB011203F4F8731344A36038BDFFF7E9
:1040300005F9D9E79A009B0FFCF7D6FD6422B0FB87
:10404000F2F102FB11031B013233B3FBF2F303EB7A
:104050000113EAE70010014010B5044648B390F898
:10406000413003F0FF021BB980F84020FDF74AFE03
:104070002268242384F84130D36823F40053D360AA
:104080002046FFF78BFF23681A6922F490421A61D9
:104090005A6922F02A025A61DA6842F40052DA6060
:1040A00000202023606484F8413084F8423060634B
:1040B00010BD0120FCE770477047704708B5806B62
:1040C0000023C385FFF7F9FF08BD704790F8423021
:1040D000222B07B542D181680268836AB1F5805FFF
:1040E0003FD1016900293FD15268C2F3080223F889
:1040F000022B8362C38D013B9BB2C385002B2DD164
:104100000268D16821F02001D160D16821F480716A
:10411000D160516921F001015161202280F84220D3
:104120004363026B012A026828D1036302F10C0386
:1041300053E8003F23F0100302F10C0C4CE800316F
:104140000029F3D11368DB0605D5019113680193AB
:1041500053680193019B818DFFF7B7FF03B05DF8B2
:1041600004FB39B9016929B95268D2B21A70836A5D
:104170000133BEE7526802F07F02F7E7FFF79CFFCA
:10418000ECE7000003681A6873B51607D9685D6923
:10419000044608D1960668D58D0666D502B0BDE8FE
:1041A0007040FFF793BF05F0010001F490750543DF
:1041B0005BD0D60705D5CD0542BF636C43F0010344
:1041C0006364530704D518B1636C43F0020363645E
:1041D000960704D518B1636C43F0040363641507B4
:1041E00007D501F0200303431EBF636C43F00803AF
:1041F0006364636C002B32D0920604D58B0602D523
:104200002046FFF763FF26687369626C03F0400382
:1042100002F0080253EA0205204622D0FFF790FE82
:1042200073695E0618D5226802F1140353E8003F53
:1042300023F04003143242E800310029F3D1E06B4F
:1042400050B1774B0365FDF75FFF40B1E06B036D45
:1042500002B0BDE8704018472046FFF72EFF02B0BD
:1042600070BDFFF72AFF6564F9E7206B012840F075
:104270009B80D50640F19880C80640F195800022C9
:1042800001921A6801925A680192019A5969A28DA5
:10429000490656D5E06B0168496889B2002947D0C4
:1042A000914245D2C269E185B2F5807F36D003F1F3
:1042B0000C0252E8002F22F4807203F10C0040E857
:1042C00000210029F3D103F1140252E8002F22F05B
:1042D000010203F1140040E800210029F3D103F1A9
:1042E000140252E8002F22F0400203F1140040E8CB
:1042F00000210029F3D1202284F84220216303F118
:104300000C0252E8002F22F0100203F10C0040E8EA
:1043100000210029F3D1E06BFDF7B8FE02236363AF
:10432000E38DA18DC91A89B22046FFF7CEFE96E72C
:10433000914294D1C369B3F5807F90D10223636326
:10434000F2E7E18DE08D80B289B2002887D0511A62
:1043500089B2002983D003F10C0252E8002F22F425
:10436000907203F10C0545E800200028F3D103F119
:10437000140252E8002F22F0010203F1140545E86F
:1043800000200028F3D1202284F84220206303F18A
:104390000C0252E8002F22F0100203F10C0545E850
:1043A00000200028F3D1C9E7160628D50D0626D52A
:1043B00094F84120212A7FF452AFA168226AB1F516
:1043C000805F17D12169A9B932F8021BC1F3080136
:1043D00059602262E28C013A92B2E284002A7FF4B0
:1043E0003EAFDA6822F08002DA60DA6842F040021A
:1043F000DA6034E7511C216212785A60EAE750060D
:104400007FF52DAF4A067FF52AAFDA6822F0400229
:10441000DA60202384F841302046FFF74CFE1EE787
:10442000BD400008C28500238285026943642223BF
:1044300080F84230816203681AB1DA6842F480720F
:10444000DA605A6942F001025A61DA6842F02002E9
:10445000DA600020704770B490F84260202E06D1D8
:1044600041B13AB10024046370BCFFF7DBBF022006
:1044700070BC70470120FBE708B54FF0E0231B69D3
:1044800001F042F8012803D0BDE8084001F04ABB22
:1044900008BD0000EFF305832BB9064B186828B957
:1044A00001221A6070476FF0050070474FF0FF302F
:1044B000704700BFA40C002010B5EFF305845CB971
:1044C000084B1A68012A0AD1074AD47702221A60D7
:1044D00000F088FD204610BD6FF00500FBE74FF0AF
:1044E000FF30F8E7A40C002000ED00E0F0B587B045
:1044F000144600220B460592EFF30582FAB9F0B19B
:1045000054B3A56925B1691E372902D9002017E0E7
:1045100018256268D207F9D466699EB1B208D4E959
:10452000027C216887B1BCF1A70F08D9246934B196
:104530002EB1CDE90147009500F0EEFC05900598FD
:1045400007B0F0BD8022EAE7BCF1000FF7D1246983
:10455000002CF4D10C4601E01825802205A9CDE9F4
:10456000005192B2214600F00FFD01281CBF00232C
:104570000593E4E708B5EFF3058222B908B100F02E
:1045800099FE002008BD6FF00500FBE7034B0360B8
:10459000034B0B6080231360704700BFFC0B0020AF
:1045A000FC090020034B0360034B0B604FF4807346
:1045B00013607047540900205405002000F10803DF
:1045C0004FF0FF32C0E90223436003610023036020
:1045D000704700230361704743684B609A688A60A4
:1045E000516099600368086101330360704730B51A
:1045F0000C68631C0AD103695A684A6091608B6039
:104600005960036808610133036030BD00F108029E
:10461000134652681568A542FAD9EDE7D0E90112B0
:1046200003698A6051605968814208BF5A6000225C
:1046300002611A68013A1A601868704710B504469A
:1046400001F008FAA46B01F025FAB4FA84F04009ED
:1046500010BD70B51646026C856B044642B90668FB
:104660009EB9806800F060FFA6600135A56370BD4B
:104670006EB9406802F02FFC6368226C1344A26894
:104680006360934224BF236863600020EDE7C06845
:1046900002F021FC226CE36851429B1A2268E3601D
:1046A00093423EBFA3685B18E360022EEDD10DB1CB
:1046B000013DEAE72846D8E7034610B41A6C0846DD
:1046C0006AB1DC68996814448C4228BF1968DC60C0
:1046D00028BFD960D9685DF8044B02F0FCBB5DF8D7
:1046E000044B704770B5044601F0B4F994F8455096
:1046F00004F124066DB2002D01DD636AB3B9FF2316
:1047000084F8453001F0C6F901F0A4F994F844505A
:1047100004F110066DB2002D01DD23697BB9FF2382
:1047200084F84430BDE8704001F0B4B9304600F080
:104730005DFE08B100F0E2FE013D6DB2DBE7304600
:1047400000F054FE08B100F0D9FE013D6DB2E2E781
:1047500038B50D46044640B94FF0500383F3118835
:10476000BFF36F8FBFF34F8FFEE701F073F9D4E90A
:104770000F31226862604B43D0185B1A1A44A06064
:10478000FF230020A063E26084F8443084F84530C1
:10479000A5B9236973B104F1100000F027FE48B1F8
:1047A0004FF0E0234FF08052C3F8042DBFF34F8F3A
:1047B000BFF36F8F01F06EF9012038BD04F11000D6
:1047C000FFF7FCFE04F12400FFF7F8FEF2E737B52F
:1047D0000D461C4640B94FF0500383F31188BFF3D8
:1047E0006F8FBFF34F8FFEE743B94FF0500383F352
:1047F0001188BFF36F8FBFF34F8FFEE74AB191B9B6
:104800004FF0500383F31188BFF36F8FBFF34F8FC7
:10481000FEE741B14FF0500383F31188BFF36F8F70
:10482000BFF34F8FFEE750230193019B502B08D01D
:104830004FF0500383F31188BFF36F8FBFF34F8F97
:10484000FEE70121002D08BF2246C4E90F0584F8C8
:10485000461022602046019BFFF77AFF9DF8183032
:1048600084F84C30204603B030BD2DE9FF410F469F
:1048700001921E46044640B94FF0500383F311885D
:10488000BFF36F8FBFF34F8FFEE751B9036C43B196
:104890004FF0500383F31188BFF36F8FBFF34F8F37
:1048A000FEE7022E0BD1E36B012B08D04FF0500333
:1048B00083F31188BFF36F8FBFF34F8FFEE700F0D4
:1048C00023FE054620B300254FF0000801F0C2F892
:1048D000A26BE36B9A4227D2324639462046FFF755
:1048E000B8FE636A1BB104F1240000F07FFD48B1FB
:1048F0004FF0E0234FF08052C3F8042DBFF34F8FE9
:10490000BFF36F8F01F0C6F8012004B0BDE8F0815D
:10491000019B002BD8D04FF0500383F31188BFF3D5
:104920006F8FBFF34F8FFEE7022ED5D0019B1BB9CF
:1049300001F0B0F80020E8E715B902A800F096FDF4
:1049400001F0A8F800F09EFB01F084F894F84430E0
:10495000FF2B08BF84F8448094F84530FF2B08BF34
:1049600084F8458001F096F801A902A800F08AFDBC
:1049700038BB01F06FF8A26BE36B9A420ED101F0E5
:1049800089F8019904F1100000F0F8FC2046FFF7C7
:10499000A9FE00F01BFC48B1012597E701F07AF869
:1049A0002046FFF79FFE00F011FCF5E74FF0E023F3
:1049B0004FF08052C3F8042DBFF34F8FBFF36F8FBA
:1049C000EAE72046FFF78EFE00F000FCB2E72DE993
:1049D000F843894617461E46044640B94FF0500337
:1049E00083F31188BFF36F8FBFF34F8FFEE751B989
:1049F000036C43B14FF0500383F31188BFF36F8F03
:104A0000BFF34F8FFEE7022E0BD1E36B012B08D0D3
:104A10004FF0500383F31188BFF36F8FBFF34F8FB5
:104A2000FEE701F029F9EFF311884FF0500383F30B
:104A30001188BFF36F8FBFF34F8FA26BE36B9A4266
:104A400001D3022E1ED194F84550A36B6DB23246AD
:104A500049462046FFF7FDFD6B1C0ED1636A3BB152
:104A600004F1240000F0C2FC10B10FB101233B603F
:104A7000012088F31188BDE8F88301356DB284F810
:104A80004550F5E70020F4E72DE9FF410E4601927D
:104A9000044640B94FF0500383F31188BFF36F8F82
:104AA000BFF34F8FFEE751B9036C43B14FF0500392
:104AB00083F31188BFF36F8FBFF34F8FFEE700F0D2
:104AC00023FD054618B300254FF0000800F0C2FF93
:104AD000A76B47B331462046013FFFF7EDFDA763C3
:104AE000236973B104F1100000F080FC48B14FF06D
:104AF000E0234FF08052C3F8042DBFF34F8FBFF374
:104B00006F8F00F0C7FF012004B0BDE8F081019B6A
:104B1000002BD9D04FF0500383F31188BFF36F8F70
:104B2000BFF34F8FFEE7019B1BB900F0B3FF0020DE
:104B3000EAE715B902A800F099FC00F0ABFF00F01D
:104B4000A1FA00F087FF94F84430FF2B08BF84F8E7
:104B5000448094F84530FF2B08BF84F8458000F06E
:104B600099FF01A902A800F08DFC00BB2046FFF7C9
:104B700065FDB0B1019904F1240000F0FFFB20466F
:104B8000FFF7B0FD00F022FB48B94FF0E0234FF0F3
:104B90008052C3F8042DBFF34F8FBFF36F8F0125F1
:104BA00094E72046FFF79EFD00F010FBF7E7204654
:104BB000FFF798FD00F00AFB2046FFF73FFD0028B5
:104BC000EDD0B4E730B5074A002352F8335002EB7A
:104BD000C3041DB942F83310606030BD0133082BA7
:104BE000F3D1FAE7A80C002070B504460D4616462E
:104BF00000F030FF94F84430FF2B04BF002384F80A
:104C0000443094F84530FF2B04BF002384F845302E
:104C100000F040FFA36B2BB93246294604F1240073
:104C200000F0C6FB2046BDE87040FFF75BBD00000A
:104C30002DE9F041044600F00DFF304B304E1A686C
:104C4000304F01321A603568002D4BD134601B683B
:104C5000012B1FD1B84640460135FFF7AFFC382D78
:104C600008F11408F7D1DFF8C480274D4046FFF75C
:104C7000A5FC2846FFF7A2FC2448FFF79FFC244828
:104C8000FFF79CFC2348FFF799FC234BC3F80080F7
:104C9000224B1D60224A136801331360214A63646A
:104CA0001168E36A14208B4200FB037004F10401D5
:104CB00088BF1360FFF790FC00F0ECFE1A4B1B68F6
:104CC00073B13368DA6AE36A9A4209D24FF0E0239B
:104CD0004FF08052C3F8042DBFF34F8FBFF36F8F97
:104CE000BDE8F081104B1A68E36A002AD2D132681D
:104CF000D26A9A4298BF3460CCE700BF0C0D002006
:104D0000E0110020800D0020580D00203C0D0020F7
:104D1000280D0020100D0020540D0020500D002003
:104D2000F00C0020040D0020000D00206C0D002070
:104D3000F8B5154B154D1C680646286804300F461B
:104D4000FFF76CFC731C07D137B129681048BDE828
:104D5000F8400431FFF740BC2B68A4195C6007D30E
:104D60000C4B18682968BDE8F8400431FFF73FBCD8
:104D7000094B186829680431FFF739FC074B1A689A
:104D8000A24288BF1C60F8BD080D0020E011002081
:104D9000100D0020500D0020540D0020EC0C0020C0
:104DA000064A13681968064B19B94FF0FF321A60AA
:104DB00070471268D268D2685268F8E7540D002034
:104DC000EC0C002010B50446543001F0C3FF94F8F9
:104DD000A5303BB9206B01F03BF82046BDE8104000
:104DE00001F036B8012BF8D0022B08D04FF0500359
:104DF00083F31188BFF36F8FBFF34F8FFEE710BDB2
:104E000080B5134C134F144D236873B9134B1B68B3
:104E1000012BF8D94FF0E0234FF08052C3F8042D56
:104E2000BFF34F8FBFF36F8FEDE700F013FEFB680A
:104E3000DE68301DFFF7F2FB2B68013B2B60236817
:104E4000013B236000F026FE3046FFF7BBFFDBE7A7
:104E5000240D0020280D00200C0D0020800D0020C6
:104E60002DE9F047DDE909949600324607460D46E4
:104E7000206BA521984601F050FF236B043E1E4491
:104E800026F00706002D41D06B1E04F133020F35CA
:104E900013F8011F02F8011F09B1AB42F8D100233A
:104EA00084F84330089D372D28BF37254FF0000A7E
:104EB000E562E564201DC4F850A0FFF78AFBC5F148
:104EC000380504F11800FFF784FBC4F8A0A04C22B9
:104ED00051462461A561646284F8A4A004F15400E1
:104EE00001F01BFF0B4BA36503F16802D033E265B1
:104EF000236642463946304600F07EFD2060B9F117
:104F0000000F01D0C9F80040BDE8F08784F83450A4
:104F1000C8E700BF3853002070B586B0DDE90B54F8
:104F200045B94FF0500383F31188BFF36F8FBFF380
:104F30004F8FFEE744B94FF0500383F31188BFF35E
:104F40006F8FBFF34F8FFEE7A8260596059EA82E0C
:104F500008D04FF0500383F31188BFF36F8FBFF376
:104F60004F8FFEE72563022584F8A55004AD019517
:104F70000A9D02940095059EFFF772FF2046FFF7F9
:104F800057FE049806B070BD2DE9F043074685B082
:104F9000900088461646994600F0C2FE054620B9A4
:104FA0004FF0FF3005B0BDE8F083A82000F0B8FE58
:104FB000044698B1002380F8A5300D9B056301934A
:104FC0000C9B0290009332464B4641463846FFF711
:104FD00047FF2046FFF72CFE0120E3E7284600F0BC
:104FE00037FFDDE710B588B0002407AA06A905A899
:104FF000CDE90544FFF7CAFA059B0293069B079A81
:1050000019491A48CDE900432346FFF785FF40B30D
:1050100000F01EFB012819D14FF0500383F31188D3
:10502000BFF36F8FBFF34F8F114B124A1B6854337E
:105030001360114B4FF0FF321A60104B1860104B89
:105040001C6008B0BDE8104000F094BD013008D1EC
:105050004FF0500383F31188BFF36F8FBFF34F8F6F
:10506000FEE708B010BD00BF1C900008014E00080C
:10507000E01100205C000020EC0C0020000D00205E
:10508000080D0020024A136801331360704700BF07
:10509000E80C0020014B1868704700BF080D002085
:1050A0003F4B1B682DE9F74F002B72D13D4B1C681D
:1050B00001341C60BCB93C4B1A68126842B14FF015
:1050C000500383F31188BFF36F8FBFF34F8FFEE759
:1050D000364A1968106818601160354A1368013340
:1050E0001360FFF75DFE334D334E2B68334F9C4208
:1050F0004FF0000B12D23A68D26A14214A43B258D8
:10510000022A2F4A126828BF4FF0010B002A18BF4D
:105110004FF0010B584603B0BDE8F08FDFF88890E0
:10512000DFF8A4A0D9F8002012681AB94FF0FF32B6
:105130002A60E0E7D9F80020D268D2F80C80D8F8CD
:1051400004108C4201D22960D5E708F10403184607
:105150000193FFF763FAD8F8281019B108F1180085
:10516000FFF75CFAD8F82C00DAF800101423884214
:1051700088BFCAF80000019903FB0060FFF72CFA12
:105180003868D8F82C10C26A914228BF4FF0010B42
:10519000C8E70C4A1368013313604FF0000BB9E7FE
:1051A000E80C0020080D0020540D0020500D0020B8
:1051B000F40C0020EC0C0020800D0020E0110020F9
:1051C000F80C0020FC0C0020040D00202DE9F0411B
:1051D000304C236843B94FF0500383F31188BFF379
:1051E0006F8FBFF34F8FFEE700F034FC2368013B65
:1051F000236024682CB1002400F04CFC2046BDE85C
:10520000F081254B1B68002BF5D0244D244EDFF890
:10521000A0801DE0EB68DC68271D04F11800FFF793
:10522000FDF93846FFF7FAF9E36A32681420934231
:1052300000FB0380394688BF3360FFF7CDF9194B77
:10524000E26A1B68DB6A9A4202D3174B01221A609A
:105250002B68002BDED10CB1FFF7A2FD134D2C689B
:1052600044B1114E0127FFF71BFF00B13760013C2D
:10527000F9D12C600C4B1B68002BBCD04FF0E02305
:105280004FF08052C3F8042DBFF34F8FBFF36F8FE1
:105290000124B1E7E80C00200C0D00203C0D00209B
:1052A000040D0020E0110020F80C0020FC0C002070
:1052B000800D002008B550B94FF0E0234FF0805228
:1052C000C3F8042DBFF34F8FBFF36F8F08BD0A4B98
:1052D000196841B14FF0500383F31188BFF36F8F0A
:1052E000BFF34F8FFEE7FFF7CDFEFFF721FDFFF77E
:1052F0006DFF0028E0D0E9E7E80C0020194B1A68A0
:10530000194B70B512B101221A6070BD174D1A60A9
:105310002A681749142606FB02F3C818CC58ACB10A
:1053200044680833646844600B449C4204BF63686B
:105330004360142303FB02114B68D9680D4B1960BD
:105340002A601B680C4A54331360DEE742B94FF001
:10535000500383F31188BFF36F8FBFF34F8FFEE7C6
:10536000013AD8E7E80C0020F80C0020040D0020DA
:10537000800D0020E01100205C00002010B50C46DC
:1053800040B94FF0500383F31188BFF36F8FBFF321
:105390004F8FFEE7054B19681831FFF728F92046B3
:1053A0000121BDE81040FFF7C3BC00BFE0110020A1
:1053B00038B50D46144640B94FF0500383F31188B9
:1053C000BFF36F8FBFF34F8FFEE7074B196818319C
:1053D000FFF702F9002C21460CBF28464FF0FF30A2
:1053E000BDE83840FFF7A4BCE011002038B5C36821
:1053F000DC6844B94FF0500383F31188BFF36F8F1B
:10540000BFF34F8FFEE704F118052846FFF706F9B2
:10541000104B1B68DBB9251D2846FFF7FFF80E4A25
:10542000E36A11688B4288BF13600C4A1420294636
:1054300000FB0320FFF7D0F8094BE26A1B68DB6A28
:105440009A4283BF074B01201860002038BD0648F0
:105450002946EFE7E80C0020040D0020800D002015
:10546000E0110020F80C00203C0D0020034B1B68CD
:105470000360034B1B684360704700BFF40C0020BF
:10548000080D002070B50C46054640B94FF050039A
:1054900083F31188BFF36F8FBFF34F8FFEE741B9DE
:1054A0004FF0500383F31188BFF36F8FBFF34F8F1B
:1054B000FEE700F0CFFA0F4B196823685A1C10D092
:1054C0000D482E6800686A68864201D08A420FD96A
:1054D000881A83420AD95B1A134423602846FFF7CF
:1054E000C5FF002400F0D6FA204670BD00232360DB
:1054F0000124F7E7080D0020F40C0020014B0122E5
:105500001A607047F80C0020054B1B6833B1054B3F
:105510001868B0FA80F040094000704701207047D9
:10552000000D0020E80C002038B508B9002038BD77
:105530001B4B1C68844208D04FF0500383F3118842
:10554000BFF36F8FBFF34F8FFEE7236D43B94FF06B
:10555000500383F31188BFF36F8FBFF34F8FFEE7C4
:10556000E16AE26C013B91422365DFD0002BDDD183
:10557000251D2846FFF752F8E36CE362C3F13802B9
:10558000A261084A11688B4288BF1360064A142042
:1055900000FB03202946FFF71FF80120C7E700BFE3
:1055A000E0110020040D0020800D0020914208B57C
:1055B000416000610AD8D21A83699A420DD2084B21
:1055C000011D1868FFF713F8002008BD9A4201D2A8
:1055D000994202D2034B011DF3E70120F5E700BF1A
:1055E000E0120020E4120020F7B5114C00F032FA6E
:1055F0002568BDB90F4F104E3846FEF7DFFF304625
:10560000FEF7DCFF0D4B0E4A1F600E4B10211E6093
:105610000A200D4B0095FFF7DAF8206010B10B4916
:10562000FFF7D0FA03B0BDE8F04000F033BA00BF96
:10563000DC120020FC120020E8120020E4120020FE
:1056400034120020E0120020E41100202190000814
:1056500010B588B0FFF7C8FF124B1B68B3B1002428
:1056600007AA06A905A8CDE90544FEF79BFF059BFF
:105670000293069B019302230093079A0A490B4861
:105680002346FFF749FC0A4B186040B94FF050031E
:1056900083F31188BFF36F8FBFF34F8FFEE70120B5
:1056A00008B010BDDC12002026900008B157000899
:1056B000D81200207FB5164604461A4640B94FF06E
:1056C000500383F31188BFF36F8FBFF34F8FFEE753
:1056D0000D4D286880B10529CDE9001602940DDC36
:1056E000FFF712FF0023022808BF089A286818BF96
:1056F0001A466946FFF7B9F804B070BD0023694641
:10570000FFF765F9F8E700BFDC1200202DE9F34749
:10571000DFF898800646FFF7BDFCD8F800308342DA
:10572000054609D91F4F3B681A686AB91E4A1168B5
:1057300039601360012300E0002328463360C8F875
:10574000005002B0BDE8F087DB68DC68D3F8009059
:1057500004F1040A5046FEF761FF236A2046984789
:1057600094F828305B07DED5A3694B44994506D2EF
:105770003868636024615146FEF739FFD3E70023A0
:1057800000934A4619462046FFF794FF0028CAD1E5
:105790004FF0500383F31188BFF36F8FBFF34F8F28
:1057A000FEE700BFE4120020E0120020D412002027
:1057B0002DE9F0436E4D6F4E89B02B68D3F8008011
:1057C000B8F1000F35D0DB68D3F800800024FFF774
:1057D00059FC04A8FFF79AFF049B8146002B69D16E
:1057E000002C4CD1404550D3FFF7F0FC2B68DB6810
:1057F000DF68381DFEF712FF97F8283058071AD5D2
:10580000B96943464A4641443846FFF7CFFEB0B136
:1058100000942346424621463846FFF74BFF70B9B5
:105820004FF0500383F31188BFF36F8FBFF34F8F97
:10583000FEE70124CBE723F0010387F828303B6A19
:10584000384698473068002204A9FFF71DF9002860
:10585000B3D0049B0698002B2FDB069C6369002BBA
:1058600032D103A8FFF752FF049B0246092BE9D867
:10587000DFE803F02E2E2E575E762E2E575E3E4B1F
:105880001B681C68B4FA84F4640930682246A8EBEB
:105890000901FFF7A9F9FFF799FC0028D2D14FF0D1
:1058A000E0234FF08052C3F8042DBFF34F8FBFF3B6
:1058B0006F8FC7E7FFF78AFCC4E7059B07999847F6
:1058C000049B002BBEDBC8E7201DFEF7A7FEC8E740
:1058D00094F82830A16943F0010384F82830059B2F
:1058E00020461944FFF762FE0028ABD0236A204609
:1058F000984794F828305907A4D5A2690599002340
:105900000A44009319462046FFF7D4FE002899D197
:105910004FF0500383F31188BFF36F8FBFF34F8FA6
:10592000FEE794F8283023F0010384F8283089E753
:1059300094F8283043F0010384F828300599A161D8
:1059400041B94FF0500383F31188BFF36F8FBFF35A
:105950004F8FFEE7034601442046FFF727FE71E71D
:1059600094F828309A07DED4204600F071FA69E7EF
:10597000E4120020DC120020E01200200848006839
:10598000006880F308884FF0000080F3148862B646
:1059900061B6BFF34F8FBFF36F8F00DF00BF000012
:1059A00008ED00E0DFF80C00016841F470010160CF
:1059B0007047000088ED00E082B0002301930D4B9A
:1059C0001B68013308D04FF0500383F31188BFF3F5
:1059D0006F8FBFF34F8FFEE74FF0500383F31188B3
:1059E000BFF36F8FBFF34F8F019B002BFCD002B032
:1059F000704700BF4C0000204FF0807340F8043C1B
:105A0000074B40F80C3C21F001016FF0020340F815
:105A1000081C40F8202C40F8243C4438704700BF54
:105A2000B95900080000000000000000000000005C
:105A3000074B19680868B0E8F04F80F30988BFF396
:105A40006F8F4FF0000080F311887047AFF3008034
:105A5000E01100204FF0500383F31188BFF36F8FE4
:105A6000BFF34F8F0A4A13680133012B13600ED125
:105A70004FF0E023D3F8043DDBB243B14FF05003C5
:105A800083F31188BFF36F8FBFF34F8FFEE770472B
:105A90004C000020084A136843B94FF0500383F3C9
:105AA0001188BFF36F8FBFF34F8FFEE7013B136089
:105AB0000BB983F3118870474C00002000000000F0
:105AC000EFF30980BFF36F8F154B1A681EF0100FAC
:105AD00008BF20ED108A20E9F04F10602DE9090081
